{
  "contractName": "SocialNetwork",
  "abi": [
    {
      "constant": true,
      "inputs": [
        {
          "name": "",
          "type": "uint256"
        }
      ],
      "name": "posts",
      "outputs": [
        {
          "name": "id",
          "type": "uint256"
        },
        {
          "name": "content",
          "type": "string"
        },
        {
          "name": "author",
          "type": "address"
        },
        {
          "name": "timestamp",
          "type": "uint256"
        }
      ],
      "payable": false,
      "stateMutability": "view",
      "type": "function"
    },
    {
      "constant": true,
      "inputs": [],
      "name": "postCount",
      "outputs": [
        {
          "name": "",
          "type": "uint256"
        }
      ],
      "payable": false,
      "stateMutability": "view",
      "type": "function"
    },
    {
      "constant": true,
      "inputs": [
        {
          "name": "",
          "type": "address"
        }
      ],
      "name": "profiles",
      "outputs": [
        {
          "name": "username",
          "type": "string"
        },
        {
          "name": "bio",
          "type": "string"
        },
        {
          "name": "owner",
          "type": "address"
        }
      ],
      "payable": false,
      "stateMutability": "view",
      "type": "function"
    },
    {
      "anonymous": false,
      "inputs": [
        {
          "indexed": true,
          "name": "owner",
          "type": "address"
        },
        {
          "indexed": false,
          "name": "username",
          "type": "string"
        },
        {
          "indexed": false,
          "name": "bio",
          "type": "string"
        }
      ],
      "name": "ProfileCreated",
      "type": "event"
    },
    {
      "anonymous": false,
      "inputs": [
        {
          "indexed": true,
          "name": "postId",
          "type": "uint256"
        },
        {
          "indexed": true,
          "name": "author",
          "type": "address"
        },
        {
          "indexed": false,
          "name": "content",
          "type": "string"
        },
        {
          "indexed": false,
          "name": "timestamp",
          "type": "uint256"
        }
      ],
      "name": "PostCreated",
      "type": "event"
    },
    {
      "constant": false,
      "inputs": [
        {
          "name": "_username",
          "type": "string"
        },
        {
          "name": "_bio",
          "type": "string"
        }
      ],
      "name": "createProfile",
      "outputs": [],
      "payable": false,
      "stateMutability": "nonpayable",
      "type": "function"
    },
    {
      "constant": false,
      "inputs": [
        {
          "name": "_content",
          "type": "string"
        }
      ],
      "name": "createPost",
      "outputs": [],
      "payable": false,
      "stateMutability": "nonpayable",
      "type": "function"
    },
    {
      "constant": true,
      "inputs": [
        {
          "name": "_postId",
          "type": "uint256"
        }
      ],
      "name": "getPost",
      "outputs": [
        {
          "components": [
            {
              "name": "id",
              "type": "uint256"
            },
            {
              "name": "content",
              "type": "string"
            },
            {
              "name": "author",
              "type": "address"
            },
            {
              "name": "timestamp",
              "type": "uint256"
            }
          ],
          "name": "",
          "type": "tuple"
        }
      ],
      "payable": false,
      "stateMutability": "view",
      "type": "function"
    },
    {
      "constant": true,
      "inputs": [
        {
          "name": "_user",
          "type": "address"
        }
      ],
      "name": "getProfile",
      "outputs": [
        {
          "components": [
            {
              "name": "username",
              "type": "string"
            },
            {
              "name": "bio",
              "type": "string"
            },
            {
              "name": "owner",
              "type": "address"
            }
          ],
          "name": "",
          "type": "tuple"
        }
      ],
      "payable": false,
      "stateMutability": "view",
      "type": "function"
    }
  ],
  "bytecode": "0x608060405234801561001057600080fd5b506113bd806100206000396000f3fe60806040526004361061007d576000357c0100000000000000000000000000000000000000000000000000000000900480630b1e7f83146100825780630f53a470146100c257806317906c2e146100ff57806340731c241461012a578063ba1feb8a14610167578063bbe1562714610190578063c7303c61146101cf575b600080fd5b34801561008e57600080fd5b506100a960048036036100a49190810190610ea0565b6101f8565b6040516100b9949392919061121d565b60405180910390f35b3480156100ce57600080fd5b506100e960048036036100e49190810190610dca565b6102ef565b6040516100f691906111e0565b60405180910390f35b34801561010b57600080fd5b506101146104e2565b6040516101219190611202565b60405180910390f35b34801561013657600080fd5b50610151600480360361014c9190810190610ea0565b6104e8565b60405161015e91906111be565b60405180910390f35b34801561017357600080fd5b5061018e60048036036101899190810190610e34565b610681565b005b34801561019c57600080fd5b506101b760048036036101b29190810190610dca565b61089b565b6040516101c693929190611119565b60405180910390f35b3480156101db57600080fd5b506101f660048036036101f19190810190610df3565b610a15565b005b60018181548110151561020757fe5b9060005260206000209060040201600091509050806000015490806001018054600181600116156101000203166002900480601f0160208091040260200160405190810160405280929190818152602001828054600181600116156101000203166002900480156102b95780601f1061028e576101008083540402835291602001916102b9565b820191906000526020600020905b81548152906001019060200180831161029c57829003601f168201915b5050505050908060020160009054906101000a900473ffffffffffffffffffffffffffffffffffffffff16908060030154905084565b6102f7610c30565b6000808373ffffffffffffffffffffffffffffffffffffffff1673ffffffffffffffffffffffffffffffffffffffff16815260200190815260200160002060606040519081016040529081600082018054600181600116156101000203166002900480601f0160208091040260200160405190810160405280929190818152602001828054600181600116156101000203166002900480156103da5780601f106103af576101008083540402835291602001916103da565b820191906000526020600020905b8154815290600101906020018083116103bd57829003601f168201915b50505050508152602001600182018054600181600116156101000203166002900480601f01602080910402602001604051908101604052809291908181526020018280546001816001161561010002031660029004801561047c5780601f106104515761010080835404028352916020019161047c565b820191906000526020600020905b81548152906001019060200180831161045f57829003601f168201915b505050505081526020016002820160009054906101000a900473ffffffffffffffffffffffffffffffffffffffff1673ffffffffffffffffffffffffffffffffffffffff1673ffffffffffffffffffffffffffffffffffffffff16815250509050919050565b60025481565b6104f0610c68565b60008211801561050257506002548211155b1515610543576040517f08c379a000000000000000000000000000000000000000000000000000000000815260040161053a9061117e565b60405180910390fd5b600180830381548110151561055457fe5b90600052602060002090600402016080604051908101604052908160008201548152602001600182018054600181600116156101000203166002900480601f0160208091040260200160405190810160405280929190818152602001828054600181600116156101000203166002900480156106115780601f106105e657610100808354040283529160200191610611565b820191906000526020600020905b8154815290600101906020018083116105f457829003601f168201915b505050505081526020016002820160009054906101000a900473ffffffffffffffffffffffffffffffffffffffff1673ffffffffffffffffffffffffffffffffffffffff1673ffffffffffffffffffffffffffffffffffffffff1681526020016003820154815250509050919050565b600073ffffffffffffffffffffffffffffffffffffffff166000803373ffffffffffffffffffffffffffffffffffffffff1673ffffffffffffffffffffffffffffffffffffffff16815260200190815260200160002060020160009054906101000a900473ffffffffffffffffffffffffffffffffffffffff1673ffffffffffffffffffffffffffffffffffffffff16141515610753576040517f08c379a000000000000000000000000000000000000000000000000000000000815260040161074a9061119e565b60405180910390fd5b6060604051908101604052808381526020018281526020013373ffffffffffffffffffffffffffffffffffffffff168152506000803373ffffffffffffffffffffffffffffffffffffffff1673ffffffffffffffffffffffffffffffffffffffff16815260200190815260200160002060008201518160000190805190602001906107df929190610ca7565b5060208201518160010190805190602001906107fc929190610ca7565b5060408201518160020160006101000a81548173ffffffffffffffffffffffffffffffffffffffff021916908373ffffffffffffffffffffffffffffffffffffffff1602179055509050503373ffffffffffffffffffffffffffffffffffffffff167f6b4494367229a908b0585b361e2871a21f8eb4cd852c02f55c9e06989f4bb2aa838360405161088f9291906110b2565b60405180910390a25050565b6000602052806000526040600020600091509050806000018054600181600116156101000203166002900480601f0160208091040260200160405190810160405280929190818152602001828054600181600116156101000203166002900480156109475780601f1061091c57610100808354040283529160200191610947565b820191906000526020600020905b81548152906001019060200180831161092a57829003601f168201915b505050505090806001018054600181600116156101000203166002900480601f0160208091040260200160405190810160405280929190818152602001828054600181600116156101000203166002900480156109e55780601f106109ba576101008083540402835291602001916109e5565b820191906000526020600020905b8154815290600101906020018083116109c857829003601f168201915b5050505050908060020160009054906101000a900473ffffffffffffffffffffffffffffffffffffffff16905083565b3373ffffffffffffffffffffffffffffffffffffffff166000803373ffffffffffffffffffffffffffffffffffffffff1673ffffffffffffffffffffffffffffffffffffffff16815260200190815260200160002060020160009054906101000a900473ffffffffffffffffffffffffffffffffffffffff1673ffffffffffffffffffffffffffffffffffffffff16141515610ae6576040517f08c379a0000000000000000000000000000000000000000000000000000000008152600401610add9061115e565b60405180910390fd5b600260008154809291906001019190505550600160806040519081016040528060025481526020018381526020013373ffffffffffffffffffffffffffffffffffffffff1681526020014281525090806001815401808255809150509060018203906000526020600020906004020160009091929091909150600082015181600001556020820151816001019080519060200190610b85929190610ca7565b5060408201518160020160006101000a81548173ffffffffffffffffffffffffffffffffffffffff021916908373ffffffffffffffffffffffffffffffffffffffff160217905550606082015181600301555050503373ffffffffffffffffffffffffffffffffffffffff166002547f285db98a4632176385795ddf0d2b67cef1a21f47eb2f5d06f786ab6b5147e2008342604051610c259291906110e9565b60405180910390a350565b6060604051908101604052806060815260200160608152602001600073ffffffffffffffffffffffffffffffffffffffff1681525090565b6080604051908101604052806000815260200160608152602001600073ffffffffffffffffffffffffffffffffffffffff168152602001600081525090565b828054600181600116156101000203166002900490600052602060002090601f016020900481019282601f10610ce857805160ff1916838001178555610d16565b82800160010185558215610d16579182015b82811115610d15578251825591602001919060010190610cfa565b5b509050610d239190610d27565b5090565b610d4991905b80821115610d45576000816000905550600101610d2d565b5090565b90565b6000610d588235611314565b905092915050565b600082601f8301121515610d7357600080fd5b8135610d86610d8182611296565b611269565b91508082526020830160208301858383011115610da257600080fd5b610dad838284611330565b50505092915050565b6000610dc28235611326565b905092915050565b600060208284031215610ddc57600080fd5b6000610dea84828501610d4c565b91505092915050565b600060208284031215610e0557600080fd5b600082013567ffffffffffffffff811115610e1f57600080fd5b610e2b84828501610d60565b91505092915050565b60008060408385031215610e4757600080fd5b600083013567ffffffffffffffff811115610e6157600080fd5b610e6d85828601610d60565b925050602083013567ffffffffffffffff811115610e8a57600080fd5b610e9685828601610d60565b9150509250929050565b600060208284031215610eb257600080fd5b6000610ec084828501610db6565b91505092915050565b610ed2816112d8565b82525050565b6000610ee3826112cd565b808452610ef781602086016020860161133f565b610f0081611372565b602085010191505092915050565b6000610f19826112c2565b808452610f2d81602086016020860161133f565b610f3681611372565b602085010191505092915050565b6000601182527f4e6f742070726f66696c65206f776e65720000000000000000000000000000006020830152604082019050919050565b6000601382527f506f737420646f6573206e6f74206578697374000000000000000000000000006020830152604082019050919050565b6000601682527f50726f66696c6520616c726561647920657869737473000000000000000000006020830152604082019050919050565b600060808301600083015161100160008601826110a3565b50602083015184820360208601526110198282610f0e565b915050604083015161102e6040860182610ec9565b50606083015161104160608601826110a3565b508091505092915050565b600060608301600083015184820360008601526110698282610f0e565b915050602083015184820360208601526110838282610f0e565b91505060408301516110986040860182610ec9565b508091505092915050565b6110ac8161130a565b82525050565b600060408201905081810360008301526110cc8185610ed8565b905081810360208301526110e08184610ed8565b90509392505050565b600060408201905081810360008301526111038185610ed8565b905061111260208301846110a3565b9392505050565b600060608201905081810360008301526111338186610f0e565b905081810360208301526111478185610f0e565b90506111566040830184610ec9565b949350505050565b6000602082019050818103600083015261117781610f44565b9050919050565b6000602082019050818103600083015261119781610f7b565b9050919050565b600060208201905081810360008301526111b781610fb2565b9050919050565b600060208201905081810360008301526111d88184610fe9565b905092915050565b600060208201905081810360008301526111fa818461104c565b905092915050565b600060208201905061121760008301846110a3565b92915050565b600060808201905061123260008301876110a3565b81810360208301526112448186610f0e565b90506112536040830185610ec9565b61126060608301846110a3565b95945050505050565b6000604051905081810181811067ffffffffffffffff8211171561128c57600080fd5b8060405250919050565b600067ffffffffffffffff8211156112ad57600080fd5b601f19601f8301169050602081019050919050565b600081519050919050565b600081519050919050565b60006112e3826112ea565b9050919050565b600073ffffffffffffffffffffffffffffffffffffffff82169050919050565b6000819050919050565b600061131f826112ea565b9050919050565b6000819050919050565b82818337600083830152505050565b60005b8381101561135d578082015181840152602081019050611342565b8381111561136c576000848401525b50505050565b6000601f19601f830116905091905056fea265627a7a7230582074c8e1e8a7856bd3bd1bdaa9794a03ae77184695cc3ad10bf2cc912b1974985d6c6578706572696d656e74616cf50037",
  "source": "// SPDX-License-Identifier: MIT\npragma solidity >=0.4.22 <0.9.0;\npragma experimental ABIEncoderV2;\n\ncontract SocialNetwork {\n    struct Profile {\n        string username;\n        string bio;\n        address owner;\n    }\n\n    struct Post {\n        uint256 id;\n        string content;\n        address author;\n        uint256 timestamp;\n    }\n\n    mapping(address => Profile) public profiles;\n    Post[] public posts;\n    uint256 public postCount;\n\n    event ProfileCreated(address indexed owner, string username, string bio);\n    event PostCreated(uint256 indexed postId, address indexed author, string content, uint256 timestamp);\n\n    modifier onlyProfileOwner() {\n        require(profiles[msg.sender].owner == msg.sender, \"Not profile owner\");\n        _;\n    }\n\n    function createProfile(string memory _username, string memory _bio) public {\n        require(profiles[msg.sender].owner == address(0), \"Profile already exists\");\n\n        profiles[msg.sender] = Profile({\n        username: _username,\n        bio: _bio,\n        owner: msg.sender\n        });\n\n        emit ProfileCreated(msg.sender, _username, _bio);\n    }\n\n    function createPost(string memory _content) public onlyProfileOwner {\n        postCount++;\n        posts.push(Post({\n        id: postCount,\n        content: _content,\n        author: msg.sender,\n        timestamp: block.timestamp\n        }));\n\n        emit PostCreated(postCount, msg.sender, _content, block.timestamp);\n    }\n\n    function getPost(uint256 _postId) public view returns (Post memory) {\n        require(_postId > 0 && _postId <= postCount, \"Post does not exist\");\n        return posts[_postId - 1];\n    }\n\n    function getProfile(address _user) public view returns (Profile memory) {\n        return profiles[_user];\n    }\n}\n",
  "sourcePath": "C:\\Users\\Aurelian\\Documents\\GitHub\\Personal\\UBB-Computer-Science\\Semester6\\Blockchain\\blockchain-master\\contracts\\SocialNetwork.sol",
  "compiler": {
    "name": "solc",
    "version": "0.5.1+commit.c8a2cb62.Emscripten.clang"
  },
  "schemaVersion": "3.4.16",
  "updatedAt": "2024-05-18T19:56:53.848Z",
  "networkType": "ethereum",
  "devdoc": {
    "methods": {}
  },
  "userdoc": {
    "methods": {}
  }
}