{
  "contractName": "SocialNetwork",
  "abi": [
    {
      "anonymous": false,
      "inputs": [
        {
          "indexed": true,
          "internalType": "uint256",
          "name": "postId",
          "type": "uint256"
        },
        {
          "indexed": true,
          "internalType": "address",
          "name": "author",
          "type": "address"
        },
        {
          "indexed": false,
          "internalType": "string",
          "name": "content",
          "type": "string"
        },
        {
          "indexed": false,
          "internalType": "uint256",
          "name": "timestamp",
          "type": "uint256"
        }
      ],
      "name": "PostCreated",
      "type": "event"
    },
    {
      "anonymous": false,
      "inputs": [
        {
          "indexed": true,
          "internalType": "address",
          "name": "owner",
          "type": "address"
        },
        {
          "indexed": false,
          "internalType": "string",
          "name": "username",
          "type": "string"
        },
        {
          "indexed": false,
          "internalType": "string",
          "name": "bio",
          "type": "string"
        }
      ],
      "name": "ProfileCreated",
      "type": "event"
    },
    {
      "inputs": [],
      "name": "postCount",
      "outputs": [
        {
          "internalType": "uint256",
          "name": "",
          "type": "uint256"
        }
      ],
      "stateMutability": "view",
      "type": "function"
    },
    {
      "inputs": [
        {
          "internalType": "uint256",
          "name": "",
          "type": "uint256"
        }
      ],
      "name": "posts",
      "outputs": [
        {
          "internalType": "uint256",
          "name": "id",
          "type": "uint256"
        },
        {
          "internalType": "string",
          "name": "content",
          "type": "string"
        },
        {
          "internalType": "address",
          "name": "author",
          "type": "address"
        },
        {
          "internalType": "uint256",
          "name": "timestamp",
          "type": "uint256"
        }
      ],
      "stateMutability": "view",
      "type": "function"
    },
    {
      "inputs": [
        {
          "internalType": "address",
          "name": "",
          "type": "address"
        }
      ],
      "name": "profiles",
      "outputs": [
        {
          "internalType": "string",
          "name": "username",
          "type": "string"
        },
        {
          "internalType": "string",
          "name": "bio",
          "type": "string"
        },
        {
          "internalType": "address",
          "name": "owner",
          "type": "address"
        }
      ],
      "stateMutability": "view",
      "type": "function"
    },
    {
      "inputs": [
        {
          "internalType": "string",
          "name": "_username",
          "type": "string"
        },
        {
          "internalType": "string",
          "name": "_bio",
          "type": "string"
        }
      ],
      "name": "createProfile",
      "outputs": [],
      "stateMutability": "nonpayable",
      "type": "function"
    },
    {
      "inputs": [
        {
          "internalType": "string",
          "name": "_content",
          "type": "string"
        }
      ],
      "name": "createPost",
      "outputs": [],
      "stateMutability": "nonpayable",
      "type": "function"
    },
    {
      "inputs": [
        {
          "internalType": "uint256",
          "name": "_postId",
          "type": "uint256"
        }
      ],
      "name": "getPost",
      "outputs": [
        {
          "components": [
            {
              "internalType": "uint256",
              "name": "id",
              "type": "uint256"
            },
            {
              "internalType": "string",
              "name": "content",
              "type": "string"
            },
            {
              "internalType": "address",
              "name": "author",
              "type": "address"
            },
            {
              "internalType": "uint256",
              "name": "timestamp",
              "type": "uint256"
            }
          ],
          "internalType": "struct SocialNetwork.Post",
          "name": "",
          "type": "tuple"
        }
      ],
      "stateMutability": "view",
      "type": "function"
    },
    {
      "inputs": [
        {
          "internalType": "address",
          "name": "_user",
          "type": "address"
        }
      ],
      "name": "getProfile",
      "outputs": [
        {
          "components": [
            {
              "internalType": "string",
              "name": "username",
              "type": "string"
            },
            {
              "internalType": "string",
              "name": "bio",
              "type": "string"
            },
            {
              "internalType": "address",
              "name": "owner",
              "type": "address"
            }
          ],
          "internalType": "struct SocialNetwork.Profile",
          "name": "",
          "type": "tuple"
        }
      ],
      "stateMutability": "view",
      "type": "function"
    }
  ],
  "bytecode": "0x608060405234801561000f575f80fd5b506116958061001d5f395ff3fe608060405234801561000f575f80fd5b506004361061007b575f3560e01c806340731c241161005957806340731c2414610100578063ba1feb8a14610130578063bbe156271461014c578063c7303c611461017e5761007b565b80630b1e7f831461007f5780630f53a470146100b257806317906c2e146100e2575b5f80fd5b61009960048036038101906100949190610be6565b61019a565b6040516100a99493929190610ce9565b60405180910390f35b6100cc60048036038101906100c79190610d5d565b61027a565b6040516100d99190610e33565b60405180910390f35b6100ea610444565b6040516100f79190610e53565b60405180910390f35b61011a60048036038101906101159190610be6565b61044a565b6040516101279190610edb565b60405180910390f35b61014a60048036038101906101459190611027565b6105d7565b005b61016660048036038101906101619190610d5d565b6107d7565b6040516101759392919061109d565b60405180910390f35b610198600480360381019061019391906110e0565b610927565b005b600181815481106101a9575f80fd5b905f5260205f2090600402015f91509050805f0154908060010180546101ce90611154565b80601f01602080910402602001604051908101604052809291908181526020018280546101fa90611154565b80156102455780601f1061021c57610100808354040283529160200191610245565b820191905f5260205f20905b81548152906001019060200180831161022857829003601f168201915b505050505090806002015f9054906101000a900473ffffffffffffffffffffffffffffffffffffffff16908060030154905084565b610282610b31565b5f808373ffffffffffffffffffffffffffffffffffffffff1673ffffffffffffffffffffffffffffffffffffffff1681526020019081526020015f206040518060600160405290815f820180546102d890611154565b80601f016020809104026020016040519081016040528092919081815260200182805461030490611154565b801561034f5780601f106103265761010080835404028352916020019161034f565b820191905f5260205f20905b81548152906001019060200180831161033257829003601f168201915b5050505050815260200160018201805461036890611154565b80601f016020809104026020016040519081016040528092919081815260200182805461039490611154565b80156103df5780601f106103b6576101008083540402835291602001916103df565b820191905f5260205f20905b8154815290600101906020018083116103c257829003601f168201915b50505050508152602001600282015f9054906101000a900473ffffffffffffffffffffffffffffffffffffffff1673ffffffffffffffffffffffffffffffffffffffff1673ffffffffffffffffffffffffffffffffffffffff16815250509050919050565b60025481565b610452610b67565b5f8211801561046357506002548211155b6104a2576040517f08c379a0000000000000000000000000000000000000000000000000000000008152600401610499906111ce565b60405180910390fd5b600180836104b09190611219565b815481106104c1576104c061124c565b5b905f5260205f2090600402016040518060800160405290815f82015481526020016001820180546104f190611154565b80601f016020809104026020016040519081016040528092919081815260200182805461051d90611154565b80156105685780601f1061053f57610100808354040283529160200191610568565b820191905f5260205f20905b81548152906001019060200180831161054b57829003601f168201915b50505050508152602001600282015f9054906101000a900473ffffffffffffffffffffffffffffffffffffffff1673ffffffffffffffffffffffffffffffffffffffff1673ffffffffffffffffffffffffffffffffffffffff1681526020016003820154815250509050919050565b5f73ffffffffffffffffffffffffffffffffffffffff165f803373ffffffffffffffffffffffffffffffffffffffff1673ffffffffffffffffffffffffffffffffffffffff1681526020019081526020015f206002015f9054906101000a900473ffffffffffffffffffffffffffffffffffffffff1673ffffffffffffffffffffffffffffffffffffffff16146106a3576040517f08c379a000000000000000000000000000000000000000000000000000000000815260040161069a906112c3565b60405180910390fd5b60405180606001604052808381526020018281526020013373ffffffffffffffffffffffffffffffffffffffff168152505f803373ffffffffffffffffffffffffffffffffffffffff1673ffffffffffffffffffffffffffffffffffffffff1681526020019081526020015f205f820151815f019081610723919061147e565b506020820151816001019081610739919061147e565b506040820151816002015f6101000a81548173ffffffffffffffffffffffffffffffffffffffff021916908373ffffffffffffffffffffffffffffffffffffffff1602179055509050503373ffffffffffffffffffffffffffffffffffffffff167f6b4494367229a908b0585b361e2871a21f8eb4cd852c02f55c9e06989f4bb2aa83836040516107cb92919061154d565b60405180910390a25050565b5f602052805f5260405f205f91509050805f0180546107f590611154565b80601f016020809104026020016040519081016040528092919081815260200182805461082190611154565b801561086c5780601f106108435761010080835404028352916020019161086c565b820191905f5260205f20905b81548152906001019060200180831161084f57829003601f168201915b50505050509080600101805461088190611154565b80601f01602080910402602001604051908101604052809291908181526020018280546108ad90611154565b80156108f85780601f106108cf576101008083540402835291602001916108f8565b820191905f5260205f20905b8154815290600101906020018083116108db57829003601f168201915b505050505090806002015f9054906101000a900473ffffffffffffffffffffffffffffffffffffffff16905083565b3373ffffffffffffffffffffffffffffffffffffffff165f803373ffffffffffffffffffffffffffffffffffffffff1673ffffffffffffffffffffffffffffffffffffffff1681526020019081526020015f206002015f9054906101000a900473ffffffffffffffffffffffffffffffffffffffff1673ffffffffffffffffffffffffffffffffffffffff16146109f3576040517f08c379a00000000000000000000000000000000000000000000000000000000081526004016109ea906115cc565b60405180910390fd5b60025f815480929190610a05906115ea565b91905055506001604051806080016040528060025481526020018381526020013373ffffffffffffffffffffffffffffffffffffffff16815260200142815250908060018154018082558091505060019003905f5260205f2090600402015f909190919091505f820151815f01556020820151816001019081610a88919061147e565b506040820151816002015f6101000a81548173ffffffffffffffffffffffffffffffffffffffff021916908373ffffffffffffffffffffffffffffffffffffffff1602179055506060820151816003015550503373ffffffffffffffffffffffffffffffffffffffff166002547f285db98a4632176385795ddf0d2b67cef1a21f47eb2f5d06f786ab6b5147e2008342604051610b26929190611631565b60405180910390a350565b604051806060016040528060608152602001606081526020015f73ffffffffffffffffffffffffffffffffffffffff1681525090565b60405180608001604052805f8152602001606081526020015f73ffffffffffffffffffffffffffffffffffffffff1681526020015f81525090565b5f604051905090565b5f80fd5b5f80fd5b5f819050919050565b610bc581610bb3565b8114610bcf575f80fd5b50565b5f81359050610be081610bbc565b92915050565b5f60208284031215610bfb57610bfa610bab565b5b5f610c0884828501610bd2565b91505092915050565b610c1a81610bb3565b82525050565b5f81519050919050565b5f82825260208201905092915050565b5f5b83811015610c57578082015181840152602081019050610c3c565b5f8484015250505050565b5f601f19601f8301169050919050565b5f610c7c82610c20565b610c868185610c2a565b9350610c96818560208601610c3a565b610c9f81610c62565b840191505092915050565b5f73ffffffffffffffffffffffffffffffffffffffff82169050919050565b5f610cd382610caa565b9050919050565b610ce381610cc9565b82525050565b5f608082019050610cfc5f830187610c11565b8181036020830152610d0e8186610c72565b9050610d1d6040830185610cda565b610d2a6060830184610c11565b95945050505050565b610d3c81610cc9565b8114610d46575f80fd5b50565b5f81359050610d5781610d33565b92915050565b5f60208284031215610d7257610d71610bab565b5b5f610d7f84828501610d49565b91505092915050565b5f82825260208201905092915050565b5f610da282610c20565b610dac8185610d88565b9350610dbc818560208601610c3a565b610dc581610c62565b840191505092915050565b610dd981610cc9565b82525050565b5f606083015f8301518482035f860152610df98282610d98565b91505060208301518482036020860152610e138282610d98565b9150506040830151610e286040860182610dd0565b508091505092915050565b5f6020820190508181035f830152610e4b8184610ddf565b905092915050565b5f602082019050610e665f830184610c11565b92915050565b610e7581610bb3565b82525050565b5f608083015f830151610e905f860182610e6c565b5060208301518482036020860152610ea88282610d98565b9150506040830151610ebd6040860182610dd0565b506060830151610ed06060860182610e6c565b508091505092915050565b5f6020820190508181035f830152610ef38184610e7b565b905092915050565b5f80fd5b5f80fd5b7f4e487b71000000000000000000000000000000000000000000000000000000005f52604160045260245ffd5b610f3982610c62565b810181811067ffffffffffffffff82111715610f5857610f57610f03565b5b80604052505050565b5f610f6a610ba2565b9050610f768282610f30565b919050565b5f67ffffffffffffffff821115610f9557610f94610f03565b5b610f9e82610c62565b9050602081019050919050565b828183375f83830152505050565b5f610fcb610fc684610f7b565b610f61565b905082815260208101848484011115610fe757610fe6610eff565b5b610ff2848285610fab565b509392505050565b5f82601f83011261100e5761100d610efb565b5b813561101e848260208601610fb9565b91505092915050565b5f806040838503121561103d5761103c610bab565b5b5f83013567ffffffffffffffff81111561105a57611059610baf565b5b61106685828601610ffa565b925050602083013567ffffffffffffffff81111561108757611086610baf565b5b61109385828601610ffa565b9150509250929050565b5f6060820190508181035f8301526110b58186610c72565b905081810360208301526110c98185610c72565b90506110d86040830184610cda565b949350505050565b5f602082840312156110f5576110f4610bab565b5b5f82013567ffffffffffffffff81111561111257611111610baf565b5b61111e84828501610ffa565b91505092915050565b7f4e487b71000000000000000000000000000000000000000000000000000000005f52602260045260245ffd5b5f600282049050600182168061116b57607f821691505b60208210810361117e5761117d611127565b5b50919050565b7f506f737420646f6573206e6f74206578697374000000000000000000000000005f82015250565b5f6111b8601383610c2a565b91506111c382611184565b602082019050919050565b5f6020820190508181035f8301526111e5816111ac565b9050919050565b7f4e487b71000000000000000000000000000000000000000000000000000000005f52601160045260245ffd5b5f61122382610bb3565b915061122e83610bb3565b9250828203905081811115611246576112456111ec565b5b92915050565b7f4e487b71000000000000000000000000000000000000000000000000000000005f52603260045260245ffd5b7f50726f66696c6520616c726561647920657869737473000000000000000000005f82015250565b5f6112ad601683610c2a565b91506112b882611279565b602082019050919050565b5f6020820190508181035f8301526112da816112a1565b9050919050565b5f819050815f5260205f209050919050565b5f6020601f8301049050919050565b5f82821b905092915050565b5f6008830261133d7fffffffffffffffffffffffffffffffffffffffffffffffffffffffffffffffff82611302565b6113478683611302565b95508019841693508086168417925050509392505050565b5f819050919050565b5f61138261137d61137884610bb3565b61135f565b610bb3565b9050919050565b5f819050919050565b61139b83611368565b6113af6113a782611389565b84845461130e565b825550505050565b5f90565b6113c36113b7565b6113ce818484611392565b505050565b5b818110156113f1576113e65f826113bb565b6001810190506113d4565b5050565b601f82111561143657611407816112e1565b611410846112f3565b8101602085101561141f578190505b61143361142b856112f3565b8301826113d3565b50505b505050565b5f82821c905092915050565b5f6114565f198460080261143b565b1980831691505092915050565b5f61146e8383611447565b9150826002028217905092915050565b61148782610c20565b67ffffffffffffffff8111156114a05761149f610f03565b5b6114aa8254611154565b6114b58282856113f5565b5f60209050601f8311600181146114e6575f84156114d4578287015190505b6114de8582611463565b865550611545565b601f1984166114f4866112e1565b5f5b8281101561151b578489015182556001820191506020850194506020810190506114f6565b868310156115385784890151611534601f891682611447565b8355505b6001600288020188555050505b505050505050565b5f6040820190508181035f8301526115658185610c72565b905081810360208301526115798184610c72565b90509392505050565b7f4e6f742070726f66696c65206f776e65720000000000000000000000000000005f82015250565b5f6115b6601183610c2a565b91506115c182611582565b602082019050919050565b5f6020820190508181035f8301526115e3816115aa565b9050919050565b5f6115f482610bb3565b91507fffffffffffffffffffffffffffffffffffffffffffffffffffffffffffffffff8203611626576116256111ec565b5b600182019050919050565b5f6040820190508181035f8301526116498185610c72565b90506116586020830184610c11565b939250505056fea26469706673582212204082b3fdb4674891477ef89d77e6b9bdcf2ec58238763b61753ff794c67ffca264736f6c63430008150033",
  "immutableReferences": {},
  "source": "// SPDX-License-Identifier: MIT\r\npragma solidity ^0.8.0;\r\n\r\ncontract SocialNetwork {\r\n    struct Profile {\r\n        string username;\r\n        string bio;\r\n        address owner;\r\n    }\r\n\r\n    struct Post {\r\n        uint256 id;\r\n        string content;\r\n        address author;\r\n        uint256 timestamp;\r\n    }\r\n\r\n    mapping(address => Profile) public profiles;\r\n    Post[] public posts;\r\n    uint256 public postCount;\r\n\r\n    event ProfileCreated(address indexed owner, string username, string bio);\r\n    event PostCreated(uint256 indexed postId, address indexed author, string content, uint256 timestamp);\r\n\r\n    modifier onlyProfileOwner() {\r\n        require(profiles[msg.sender].owner == msg.sender, \"Not profile owner\");\r\n        _;\r\n    }\r\n\r\n    function createProfile(string memory _username, string memory _bio) public {\r\n        require(profiles[msg.sender].owner == address(0), \"Profile already exists\");\r\n\r\n        profiles[msg.sender] = Profile({\r\n        username: _username,\r\n        bio: _bio,\r\n        owner: msg.sender\r\n        });\r\n\r\n        emit ProfileCreated(msg.sender, _username, _bio);\r\n    }\r\n\r\n    function createPost(string memory _content) public onlyProfileOwner {\r\n        postCount++;\r\n        posts.push(Post({\r\n        id: postCount,\r\n        content: _content,\r\n        author: msg.sender,\r\n        timestamp: block.timestamp\r\n        }));\r\n\r\n        emit PostCreated(postCount, msg.sender, _content, block.timestamp);\r\n    }\r\n\r\n    function getPost(uint256 _postId) public view returns (Post memory) {\r\n        require(_postId > 0 && _postId <= postCount, \"Post does not exist\");\r\n        return posts[_postId - 1];\r\n    }\r\n\r\n    function getProfile(address _user) public view returns (Profile memory) {\r\n        return profiles[_user];\r\n    }\r\n}\r\n",
  "sourcePath": "C:\\Users\\lexig\\IdeaProjects\\blockchain\\contracts\\SocialNetwork.sol",
  "compiler": {
    "name": "solc",
    "version": "0.8.21+commit.d9974bed.Emscripten.clang"
  },
  "schemaVersion": "3.4.16",
  "updatedAt": "2024-05-15T14:34:20.907Z",
  "devdoc": {
    "kind": "dev",
    "methods": {},
    "version": 1
  },
  "userdoc": {
    "kind": "user",
    "methods": {},
    "version": 1
  }
}